:020000040000FA
:1000000000030020C10000009707000091070000D6
:1000100000000000000000000000000000000000E0
:10002000000000000000000000000000FB070000CE
:100030000000000000000000F7070000FD070000BE
:1000400000000000D3000000000000009507000041
:1000500000000000CD060000CF060000D106000021
:10006000D3060000000000000000000000000000B7
:1000700095060000A908000000000000E908000043
:10008000C9080000AD0800000000000000000000EA
:10009000F5070000000000000000000093070000CA
:1000A00000000000F9070000000000004509000002
:1000B00095090000000000000000000000000000A2
:1000C0000448804704480047FEE7FEE7FEE7FEE7F6
:1000D000FEE7FEE701080000DD000000034885465A
:1000E00000F0FCF900480047610A0000000300200E
:1000F000F0B51FB40646002082B0054640240191A9
:1001000000901BE0019922460F46304600F02DFA80
:10011000049A059B801A994110D31046194622462D
:1001200000F013FA361A8F41019722460120002170
:10013000009F00F00AFA38184D4100902046641ED6
:100140000028DFDC019B00982946324607B0F0BD4D
:10015000F0B507460846584087B0C00F04904800E5
:100160000E46590040084908BC1A884105D2384655
:1001700031461E4617460B460246580040081043BB
:100180004CD0300D039040055900400D490D0590AD
:10019000401A0290402872DA18030121000B090569
:1001A0000843019004980092002805D0019952421A
:1001B0000020884100920190029840210A1A01997A
:1001C000009800F0C2F905460C466B4607CB00F0DC
:1001D000DDF9C0197141039A0E0D0023D71756405F
:1001E0001A467A40164344D0049A002A2DD0029A27
:1001F000012A039A15DC1205C01A91410126360521
:10020000001C7141D20F059ED20700930192029605
:100210002A46234600F0DAF907B0F0BD38463146E9
:10022000FAE71605224A0F46B218C01AB741012153
:100230000905001C4F4100187F41114618187941EB
:10024000E20F10436D19644113E0E2076D08154396
:100250006408C2071443039A01261205C01A91418B
:100260003605001C7141CE07400830434908C018CC
:1002700051412A46234600F09CF9CDE7FFE7049858
:1002800001224000C117121A00238B410498314605
:10029000C417381AA141EEE730B40124E4076340E3
:1002A00030BC55E730B40124E407614030BC4FE76F
:1002B0000000E0FFF0B51FB488B00B990998002446
:1002C00048400999C00F490049080991C0070B9996
:1002D0000090490049080B9109990898A6460843DF
:1002E0001CD00B990A98084318D0099801244000A3
:1002F000420D4800410D099824050003000B2043DE
:1003000009900B980003000B20430B9050181C49D8
:100310004018002201901446104605E000200146D6
:100320000DB0F0BD032801DA034600E003239C462C
:10033000C11A0AAE0AE05F0008ADED5B4F00F75B43
:100340007D430027AA187C41491C5B1E6145F2DDF4
:10035000410004AB5A522104120C0A43240C401CE5
:100360000828DFDB01980290009970460191009007
:10037000059B049A0799069800F028F9D0E7000039
:100380000DFCFFFFF0B50C465C4085B0E40FE407C0
:1003900003944C000026640859009446490802461C
:1003A0000296224321D062460A431ED06200570DB6
:1003B0004A000E032303550D012402462C4924054F
:1003C000781B1B0B360B40182343264361460090D5
:1003D0001C46501AB44103D30098401C009002E020
:1003E000921800985B41002803DA0020014605B00E
:1003F000F0BD0020012109050746864611E064464C
:100400001D46141BB54106D36546521BB3417446C5
:1004100007430C43A646CD074008490828439218D5
:100420005B4105460D43EAD11046184313D06046A0
:10043000194650407140084306D06046101AB34137
:1004400006D20122002306E000220123DB0702E09E
:100450000122D2435310009874460105381C6141B3
:10046000029C039D0019694100F0A3F8BFE700005A
:10047000FD0300004A0009030123090B1B05194372
:100480000A4B10B5520D9A4202DA0020014610BD07
:10049000064B34339A4203DC9A1A00F066F810BD1A
:1004A000034BD21800F051F810BD0000FF0300000C
:1004B000CDFBFFFF10B5002904DB0124E407404217
:1004C0008C412146002B04DB1C460123DB075242F2
:1004D000A341994200D1904210BD00001CB50948CB
:1004E00000900948019005460126009C05E0E3685C
:1004F00007CC33430C3C98471034AC42F7D3FFF79A
:10050000F1FD0000341800004418000070B50446E6
:10051000002903D000202022012310E0002801D070
:100520000020C043C046C0460DE02546D5408D4260
:1005300005D30D469540641B1D4695404019154650
:10054000521E002DF1DC214670BD10B5202A04DBBF
:100550000146203A9140002010BD914020239C1A72
:100560000346E3401943904010BD10B5202A04DB38
:100570000846203AD040002110BD0B46D340D04061
:100580002024A21A91400843194610BD10B5202A14
:1005900006DBCB170846203A1041C1170B4306E093
:1005A0000B461341D0402024A21A9140084319461B
:1005B00010BD10B5002B08DA0024401C61419218D0
:1005C0005B411A4301D14008400010BDF0B51FB493
:1005D00082B005460C0003D0084600F059FC02E04A
:1005E00000F056FC20300246009021462846FFF7D6
:1005F000ACFF049B059A04460F4618431143084379
:1006000014D0184610431BD0009840210A1A1846EF
:100610000599FFF7AAFF05460E46009A059904982A
:10062000FFF793FF084305D0012004E02046394638
:1006300007B0F0BD0020C11705430E432C433743DC
:1006400000990E986305401A7905E40A00220C43CC
:10065000FD0A0A3002D500200146E9E7010510191C
:1006600069410C9C0D9D00196941FFF7A2FFDFE76E
:10067000D2B201E00270401C491EFBD2704700223A
:10068000F6E710B513460A4604461946FFF7F0FF91
:10069000204610BD0B488168490711D5016C0A49F5
:1006A0000A680121CB0601681940521C03D00029B9
:1006B00004D0016801E0002900D10068B448006955
:1006C0007047C046002401402CF00140704770473D
:1006D00070477047B0B50D4BC3180C24E341042B91
:1006E00010D283680B4383600023002909D0CC0714
:1006F00004D014469C400568254305601B1D49082D
:10070000F3E7B0BD2148D22100F088F9F0FFFFB730
:1007100010B51722D20682180C23DA41042A28D2F7
:100720000A68130C21D1002A1FD00B79032B24D285
:100730004979032925D25C1E012C04D88260022B42
:100740000AD054210FE0C26002290AD0012905D045
:10075000002909D1C26405E0502104E0C2644021AF
:1007600001E082644421425010BD08482F2100F06E
:1007700055F906482E2100F051F90448302100F0C7
:100780004DF90248312100F049F9C0460118000036
:10079000FEE7704770477047F8B58378022B1BD28D
:1007A0004278042A1CD211490078002B0DD0FC237A
:1007B00003400F4C1D598607F60EFF27B740BD4377
:1007C0009201B2402A431A5100E080311F221040AA
:1007D000012282400A60F8BD03482C2100F01EF976
:1007E00001482D2100F01AF99E17000000E100E0F9
:1007F00000E400E0704770477047704770470000A2
:1008000070B52648016B0F230B40856984694268E7
:1008100041680F2B01D0002B18D140231A40FF262E
:100820003602354005263602B54205D106252C4054
:10083000062C01D1002A04D0002A00D04360184AB7
:100840008260090502D50121C90241600121CA4324
:10085000144B1C6814401C609C680C439C601C6911
:1008600014401C61026803239A430260026802601C
:100870001F22130104689C4304600368036012068E
:10088000036893430360026802600268920700D025
:10089000FEE7090502680A43026070BD0CF00140E2
:1008A00056AB00000818004070470000214801685E
:1008B000C90707D0016801220A4302603448016970
:1008C000491C01617047C0461B480168C90707D031
:1008D000016801220A43026002480168491C016064
:1008E0007047C046F80000207047000010B5114A5C
:1008F000904209D0104A904206D0104A90420FD040
:100900000F48362100F08AF84A68082314461C4331
:10091000082C0AD144699C434461436913434361F1
:100920000A8882614988816010BD05483A2100F03B
:1009300075F8C0460010004000140040001C004044
:10094000D017000070B51C4C2069C00704D11048B6
:10095000C168491CC16070BD0D4D2E69A868301A70
:10096000062806D30020A880284634304121FFF70E
:1009700086FEAE602068A9883F2905D8A9884A1C50
:10098000AA806918342288542069C007F2D170BD4A
:10099000000000207047000010B50023064A8B427B
:1009A00006D014696405FCD4C45C14605B1CF6E7D3
:1009B0001069C005FCD510BD0044004083B0C0B52F
:1009C00003A80EC003AB00930748802107A200F0E4
:1009D00047FA012803DB81B20348FFF7DDFF88BC3B
:1009E00001BC03B00047C0467500002057726F6E0F
:1009F0006720706172616D65746572732076616CD9
:100A000075653A2066696C65202573206F6E206CD1
:100A1000696E6520256C750D0A0000000A460146C6
:100A2000FFF7CCFFFEE70000B0B500210A4B0B4AF0
:100A300004290ED0445C63400724E443002C06D014
:100A40005D08DB0700D055402B46641CF6E7491CC7
:100A5000EEE798B2B0BDC046FFFF000001A0000065
:100A60008EB00CA901258D800C95E44E3046FFF721
:100A70004FFE103602220192E14B3046294698473C
:100A8000E04800270760E048072101600D97DF4834
:100A90000C90DF4E0CA93046FFF728FF0BA885709D
:100AA000477011210170716929437161D94CA047C8
:100AB0007068284370600D97D7480C90D74E0CA9EA
:100AC0003046FFF713FF0BA885704770102109917E
:100AD0000170716929437161A04770682843706093
:100AE000CF4E202130462A46C54CA04740213046F3
:100AF0002A46A0470CA885701B21017001994170FE
:100B0000C4498847C74A906828439060F843D06139
:100B100003909061106876218843FF210A31029189
:100B200008431060C04C2068C005C00E411CBF487F
:100B3000FFF7ECFC2168C900C90E491CFFF7E6FC71
:100B40000646C00A4B2828460BD34B24E102304608
:100B5000FFF7DCFCB64941438919A202914200D952
:100B6000401CB04A50601068802101431160A80306
:100B7000062F05D001780CAAD1557F1C001DF7E780
:100B80000CA8FFF751FF0CA9012005908880099C53
:100B90000C94A84D2846FFF7BBFDAC67A64A10464B
:100BA0002430002106900173516291620791D16255
:100BB00010691169091A6429FBD3A04EA04830605E
:100BC000A04C20460838059BD9030160636020686B
:100BD000019908432060206818432060039C34601A
:100BE0000CA8001D009050691169081A042800D251
:100BF000FDE01069506124200890115C1646D2690E
:100C00003069821A642A16D3F061F2789142324632
:100C100001D01062D17000290BD0116A401AC82887
:100C20000ED9002050629062D06290705070069988
:100C30000873106911E030690029324601D10CE0D7
:100C40001069916A401A02992331884205D907999F
:100C500051629162D16206980173107801280DD11A
:100C600090691169081A652800D2C0E0002050621E
:100C70009062D06290701080069908730CA98B80E6
:100C800008260C9628461C46FFF742FD642000F01B
:100C9000DDF8EE67142000F0D9F820020CA9888056
:100CA00004960C962846FFF733FD079C27460999C2
:100CB000A967102C0A9710D0642630460F4600F022
:100CC000C5F8EF67304600F0C1F8641C28680007DB
:100CD000204600D50A980746E9E73806FEB2564A8C
:100CE00018D090788642039C059B02D1507800284A
:100CF0007DD10898115C1069022903D0012912D016
:100D0000002919D101219184906206980772C1705F
:100D1000877068E050780128039C059B67D11069B3
:100D2000906200275FE0114626228B5CB3420AD115
:100D30008862059B0A4656E0002050629062D062AD
:100D4000069908734FE02524095D002905D1B342B7
:100D5000059900D30221384F3955B342039C01D283
:100D6000012903D0B34237D9022935D12723324F85
:100D7000FB5C052B0CD2B862581C069AD0700A98FE
:100D80009070D0180A9A0272012B3A4604D828E0D3
:100D90000A9BBB54B8623A460198089BD0540CAFEA
:100DA000049ABA80284A3A80012900D10846B871CD
:100DB0000098FFF739FE788038460499FFF7ECFD7C
:100DC000059B1D4A1370002050629062D062069904
:100DD00008731069906105E00020174A9084069915
:100DE000C870059B0A9F9770701E86415670134805
:100DF0001349016013494B600460F4E60010004899
:100E0000D506000004140048001800403200BF124C
:100E1000001000409907000001002F00001400405E
:100E200010300048044400400CF00140006CDC022B
:100E300000A8FDFF00200048000000200034004012
:100E400051E5CC1A08300040AA55000003490A6851
:100E50000B689B1A8342FBD37047C046F800002002
:100E60007CB51D4616460C0001D0611E00E0002135
:100E700001910090054B6A462946304600F0E8F89B
:100E8000002C02D0009A002111707CBD891700004F
:100E90002021020C01D010211046020A01D0104678
:100EA0000839020901D01046091F820801D01046F6
:100EB000891E420801D0881E7047081A704702E058
:100EC00008C8121F08C1002AFAD1704770470020D5
:100ED00001E001C1121F002AFBD17047F0B51FB419
:100EE00086B00998089A030D0021024314D0514896
:100EF000514A1818504305141198012810981AD017
:100F0000281A401C00264D4F4D490096019104902F
:100F1000002812DA444211E01198012449A3012863
:100F200001D11098C1430698119A84600360C26091
:100F300041600BB0F0BD4042E4E7044621050020CB
:100F40003F4A001C51410391029012E0E00707D094
:100F500032463B4601990098FFF7ACF901910090A9
:100F600032463B4610461946FFF7A4F906460F469F
:100F70006410002CEAD10498039B0028029A099976
:100F8000089806DAFFF796F9019B009AFFF792F9A5
:100F900005E0FFF7F7F9019B009AFFF7F3F9044624
:100FA0000E460022284BFFF785FA03D80020C043E5
:100FB000014607E00022254B20463146FFF7C8F8DE
:100FC000FFF758FA102409E0002C0ADB0A2200235C
:100FD000FFF78EF8079B30321A55641E02460A430B
:100FE000F2D11122641C079B121B1C19119B012BAF
:100FF00003D0012308430ED10AE0084304D0112096
:1010000010900020119077E71098151A6D1E0BE0D4
:101010001098824202DD00236D1C03E0824201DA57
:1010200000236D1E002BEED0069811998260C160DE
:1010300030C07EE701FCFFFF104D000000001440AF
:101040000000F03F300000000000F0430000E03FEF
:10105000FFB597B00646002518E2252877D1002471
:101060002746FD49049400E00443761C32780120B1
:10107000203A90400842F7D130782A280ED0022238
:10108000307801463039092916D804990A23594382
:10109000303940181443761C0490F1E7189802C8C0
:1010A00004911890002904DA0120400304434842C7
:1010B000049002200443761C30782E2814D104209A
:1010C00004437078761C2A2809D11898761C80C8A9
:1010D000189009E00A214F43303FC719761C307839
:1010E000014630390929F5D930786C2810D006DC52
:1010F0004C281AD068280ED06A2817D104E074282A
:1011000013D07A2812D110E00120400504430CE0EE
:101110000121090501E0032109050C437178814291
:1011200003D1012000052418761C761C307811901C
:1011300066280BD013DC58287DD009DC00287BD032
:101140004528F6D04628F4D047281AD1A5E118E062
:10115000632835D0642870D0652812D19DE17028AD
:101160006CD008DC6728F1D069287BD06E280DD0C0
:101170006F2806D1BAE073282ED0752871D0782850
:1011800059D01A9A199990476D1C7EE16002400F60
:10119000022809D003280DD00428189801680DD022
:1011A0000D60001D189070E11898EA1701680D6035
:1011B0004A60F6E7189801680D80F2E70D70F0E7D5
:1011C00018986A4601781172001D1890002050721C
:1011D00002A80090012005E0189802C8189000208D
:1011E0000091C04361070DD5002101E00199491C20
:1011F0000191B94212DA8142F8DB009A515C002970
:10120000F4D10BE0002101E00199491C01918142D8
:10121000FADB019A0099895C0029F5D101990498BB
:101220001A9B471A21463846199A00F097FA0199F5
:10123000401945180BE04FE02CE113E04EE0009818
:1012400000990078491C00911A9A199990470198C1
:10125000401E0190401CF2D1214638461A9B199A33
:1012600010E137E00A200021009001916002410F57
:10127000022907D0189A01CA1892C2179446032966
:1012800008D00AE01898C01DC108C90005C9189106
:10129000944607E000B2C2179446042902D140B236
:1012A000C1178C4600226146944506DA0A460021A1
:1012B000404291418C462D2102E0210504D52B218D
:1012C0006A461173012103E0E10701D02021F7E70D
:1012D000029155E00A200AE0102008E0102000905A
:1012E0000021042004430191082703E00820002185
:1012F000019100906002410F022907D0189A01CA9B
:10130000189200229446032908D008E01898C01DBE
:10131000C108C90005C91891944603E080B20429A8
:1013200000D1C0B200210291210729D5119970295D
:1013300006D0009A1021019B4A401A4305D00EE0C6
:1013400040216A461173012108E06146014306D03D
:1013500030216A4611731199517302210291009A4A
:101360000821019B4A401A430AD16146014301D139
:10137000610705D530216A46117301217F1E029154
:101380001199582904D035A10E910DA90D910DE0A8
:1013900037A1F9E76146019B009AFEF7A9FE0E9B73
:1013A0008C469B5C0D9A521E0D9213706146014350
:1013B000F0D10D9805A9081A20300190600703D5D7
:1013C00001200004844300E001270198874201DDE9
:1013D000381A00E00020019900904118029809187D
:1013E0000498401A0490E00306D421461A9B199AE7
:1013F000049800F0B3F94519002706E003A81A9AEB
:10140000C05D199990476D1C7F1C02988742F5DBDF
:10141000E0030CD521461A9B199A049800F09EF916
:10142000451904E01A9A3020199990476D1C0099CB
:10143000481E00900029F5DC08E00D980D99007811
:10144000491C0D911A9A199990476D1C0199481ED3
:1014500001900029F1DC63E10928010030313233C9
:1014600034353637383961626364656600000000E0
:1014700030313233343536373839414243444546CA
:101480000000000000F05AF94519761C3078002859
:1014900000D0E2E528461BB0F0BD600700D4062767
:1014A0001898C01DC108C90048680A680831C30FF0
:1014B000DB071891190001D09CA108E0210501D596
:1014C0009BA104E0E10701D09AA100E09AA14300AA
:1014D00011985B08109165280CD006DC452809D0CE
:1014E00046281DD0472841D141E0662818D06728FA
:1014F0003CD13CE00021112F01DB112000E0781CE1
:101500000191009008A911A8FFF7E8FC1399059133
:101510000021119A15927F1C12980197009150E0BA
:101520000120C00703900120019008A9009711A88D
:10153000FFF7D4FC139A149905920022119B009294
:1015400012981593059A0192002901D0104602E0E5
:10155000791C40180190381A01D5019804E04042E6
:10156000401E0090781C0190C01B029043E0012FA8
:1015700000DA01270021112F01DD112000E038469B
:101580000191009008A911A8FFF7A8FC13990591F3
:10159000119A0021129815920091019721070CD4FD
:1015A0000599B94201DB019900E00191012904DDAF
:1015B000159A491E515C302906D0B84201DA011D46
:1015C00005DA0121029115E00199491EEDE7002895
:1015D00005DC0099411800910199091A03E0019A6C
:1015E000411C914200DD01910099401A401C02907B
:1015F0000120C0070390200706D402990198814278
:1016000002DB0020C043029000206946C87707AF84
:10161000012103980337C907884224D00220119082
:101620002B201290039800280CDA404203902D20C2
:10163000129007E00A210398FEF768FF30317F1E01
:10164000039039701199481E11900029F2DC03981B
:101650000028EFD1791E12980870307820210840B8
:101660004530BF1E387006A8C01BC01D03901098DF
:101670000078002800D00120019941180298C01775
:101680000918039809180498401A401E0490E003B2
:1016900006D421461A9B199A049800F05FF8451960
:1016A00010980078002803D01A9A199990476D1C59
:1016B000E00324D521461A9B199A049800F04EF8AD
:1016C00045191CE00098002807DB0099059888421E
:1016D00003DD1598405C199901E0199930201A9A98
:1016E000904700986D1C401C00900298401E02908C
:1016F000002804D11A9A2E20199990476D1C01993F
:10170000481E01900029DDDC05E038781A9A7F1C1C
:10171000199990476D1C0399481E03900029F4DC29
:1017200021461A9B199A0498ACE600002D0000008F
:101730002B0000002000000000000000F8B5044667
:1017400000251E461746880404D405E039462020AB
:10175000B0476D1C641EF9D52846F8BDFFB5044698
:10176000002581B01E46C80301D5302700E02027A0
:10177000880404D505E038460399B0476D1C641E03
:10178000F9D5284605B0F0BD4A68002A06D00A6897
:10179000531C0B6010704868401E486070472E2E26
:1017A0002F4C69627261726965732F5054333259DC
:1017B000303033785F46574C69622F7372632F5015
:1017C00054333259303033785F6E7669632E63005C
:1017D0002E2E2F4C69627261726965732F505433DB
:1017E0003259303033785F46574C69622F737263D9
:1017F0002F5054333259303033785F74696D2E6313
:10180000002E2E2F4C69627261726965732F5054DD
:10181000333259303033785F46574C69622F7372D8
:10182000632F5054333259303033785F6770696FAB
:101830002E63000044180000000000200003000098
:04184000CE0E0000C8
:04000005000000DD1A
:00000001FF
