:020000040000FA
:10000000B8030020C1000000D7070000D10700009E
:1000100000000000000000000000000000000000E0
:100020000000000000000000000000003B0800008D
:100030000000000000000000370800003D0800003C
:1000400000000000D300000000000000D507000001
:10005000000000000D0700000F070000110700005E
:100060001307000000000000000000000000000076
:10007000D5060000E9080000000000002909000082
:1000800009090000ED080000000000000000000069
:10009000350800000000000000000000D307000049
:1000A0000000000039080000000000008509000081
:1000B000D509000000000000000000000000000062
:1000C0000448804704480047FEE7FEE7FEE7FEE7F6
:1000D000FEE7FEE741080000DD000000034885461A
:1000E00000F0FCF900480047990A0000B80300201E
:1000F000F0B51FB40646002082B0054640240191A9
:1001000000901BE0019922460F46304600F02DFA80
:10011000049A059B801A994110D31046194622462D
:1001200000F013FA361A8F41019722460120002170
:10013000009F00F00AFA38184D4100902046641ED6
:100140000028DFDC019B00982946324607B0F0BD4D
:10015000F0B507460846584087B0C00F04904800E5
:100160000E46590040084908BC1A884105D2384655
:1001700031461E4617460B460246580040081043BB
:100180004CD0300D039040055900400D490D0590AD
:10019000401A0290402872DA18030121000B090569
:1001A0000843019004980092002805D0019952421A
:1001B0000020884100920190029840210A1A01997A
:1001C000009800F0C2F905460C466B4607CB00F0DC
:1001D000DDF9C0197141039A0E0D0023D71756405F
:1001E0001A467A40164344D0049A002A2DD0029A27
:1001F000012A039A15DC1205C01A91410126360521
:10020000001C7141D20F059ED20700930192029605
:100210002A46234600F0DAF907B0F0BD38463146E9
:10022000FAE71605224A0F46B218C01AB741012153
:100230000905001C4F4100187F41114618187941EB
:10024000E20F10436D19644113E0E2076D08154396
:100250006408C2071443039A01261205C01A91418B
:100260003605001C7141CE07400830434908C018CC
:1002700051412A46234600F09CF9CDE7FFE7049858
:1002800001224000C117121A00238B410498314605
:10029000C417381AA141EEE730B40124E4076340E3
:1002A00030BC55E730B40124E407614030BC4FE76F
:1002B0000000E0FFF0B51FB488B00B990998002446
:1002C00048400999C00F490049080991C0070B9996
:1002D0000090490049080B9109990898A6460843DF
:1002E0001CD00B990A98084318D0099801244000A3
:1002F000420D4800410D099824050003000B2043DE
:1003000009900B980003000B20430B9050181C49D8
:100310004018002201901446104605E000200146D6
:100320000DB0F0BD032801DA034600E003239C462C
:10033000C11A0AAE0AE05F0008ADED5B4F00F75B43
:100340007D430027AA187C41491C5B1E6145F2DDF4
:10035000410004AB5A522104120C0A43240C401CE5
:100360000828DFDB01980290009970460191009007
:10037000059B049A0799069800F028F9D0E7000039
:100380000DFCFFFFF0B50C465C4085B0E40FE407C0
:1003900003944C000026640859009446490802461C
:1003A0000296224321D062460A431ED06200570DB6
:1003B0004A000E032303550D012402462C4924054F
:1003C000781B1B0B360B40182343264361460090D5
:1003D0001C46501AB44103D30098401C009002E020
:1003E000921800985B41002803DA0020014605B00E
:1003F000F0BD0020012109050746864611E064464C
:100400001D46141BB54106D36546521BB3417446C5
:1004100007430C43A646CD074008490828439218D5
:100420005B4105460D43EAD11046184313D06046A0
:10043000194650407140084306D06046101AB34137
:1004400006D20122002306E000220123DB0702E09E
:100450000122D2435310009874460105381C6141B3
:10046000029C039D0019694100F0A3F8BFE700005A
:10047000FD0300004A0009030123090B1B05194372
:100480000A4B10B5520D9A4202DA0020014610BD07
:10049000064B34339A4203DC9A1A00F066F810BD1A
:1004A000034BD21800F051F810BD0000FF0300000C
:1004B000CDFBFFFF10B5002904DB0124E407404217
:1004C0008C412146002B04DB1C460123DB075242F2
:1004D000A341994200D1904210BD00001CB50948CB
:1004E00000900948019005460126009C05E0E3685C
:1004F00007CC33430C3C98471034AC42F7D3FFF79A
:10050000F1FD0000701C0000801C000070B5044666
:10051000002903D000202022012310E0002801D070
:100520000020C043C046C0460DE02546D5408D4260
:1005300005D30D469540641B1D4695404019154650
:10054000521E002DF1DC214670BD10B5202A04DBBF
:100550000146203A9140002010BD914020239C1A72
:100560000346E3401943904010BD10B5202A04DB38
:100570000846203AD040002110BD0B46D340D04061
:100580002024A21A91400843194610BD10B5202A14
:1005900006DBCB170846203A1041C1170B4306E093
:1005A0000B461341D0402024A21A9140084319461B
:1005B00010BD10B5002B08DA0024401C61419218D0
:1005C0005B411A4301D14008400010BDF0B51FB493
:1005D00082B005460C0003D0084600F0E5FD02E0BD
:1005E00000F0E2FD20300246009021462846FFF749
:1005F000ACFF049B059A04460F4618431143084379
:1006000014D0184610431BD0009840210A1A1846EF
:100610000599FFF7AAFF05460E46009A059904982A
:10062000FFF793FF084305D0012004E02046394638
:1006300007B0F0BD0020C11705430E432C433743DC
:1006400000990E986305401A7905E40A00220C43CC
:10065000FD0A0A3002D500200146E9E7010510191C
:1006600069410C9C0D9D00196941FFF7A2FFDFE76E
:1006700003460B439B0703D009E008C9121F08C0BB
:10068000042AFAD203E00B780370401C491C521E66
:10069000F9D27047D2B201E00270401C491EFBD271
:1006A00070470022F6E710B513460A46044619467D
:1006B000FFF7F0FF204610BD30B50446002003468A
:1006C00000E05B1C934203D2E05CCD5C401BF8D0A1
:1006D00030BD00000B488168490711D5016C0A49FB
:1006E0000A680121CB0601681940521C03D0002979
:1006F00004D0016801E0002900D10068B448006915
:100700007047C046002401402CF0014070477047FC
:1007100070477047B0B50D4BC3180C24E341042B50
:1007200010D283680B4383600023002909D0CC07D3
:1007300004D014469C400568254305601B1D4908EC
:10074000F3E7B0BD2148D22100F06CF9F0FFFFB70C
:1007500010B51722D20682180C23DA41042A28D2B7
:100760000A68130C21D1002A1FD00B79032B24D245
:100770004979032925D25C1E012C04D88260022B02
:100780000AD054210FE0C26002290AD0012905D005
:10079000002909D1C26405E0502104E0C26440216F
:1007A00001E082644421425010BD08482F2100F02E
:1007B00039F906482E2100F035F90448302100F0BF
:1007C00031F90248312100F02DF9C0463B1C0000F0
:1007D000FEE7704770477047F8B58378022B1BD24D
:1007E0004278042A1CD211490078002B0DD0FC233A
:1007F00003400F4C1D598607F60EFF27B740BD4337
:100800009201B2402A431A5100E080311F22104069
:10081000012282400A60F8BD03482C2100F002F951
:1008200001482D2100F0FEF8D81B000000E100E097
:1008300000E400E070477047704770477047000061
:1008400070B52648016B0F230B40856984694268A7
:1008500041680F2B01D0002B18D140231A40FF26EE
:100860003602354005263602B54205D106252C4014
:10087000062C01D1002A04D0002A00D04360184A77
:100880008260090502D50121C90241600121CA43E4
:10089000144B1C6814401C609C680C439C601C69D1
:1008A00014401C61026803239A43026002680260DC
:1008B0001F22130104689C4304600368036012064E
:1008C000036893430360026802600268920700D0E5
:1008D000FEE7090502680A43026070BD0CF00140A2
:1008E00056AB00000818004070470000214801681E
:1008F000C90707D0016801220A4302603448016930
:10090000491C01617047C0461B480168C90707D0F0
:10091000016801220A43026002480168491C016023
:100920007047C046EC0000207047000010B5114A27
:10093000904209D0104A904206D0104A90420FD0FF
:100940000F48362100F06EF84A68082314461C430D
:10095000082C0AD144699C434461436913434361B1
:100960000A8882614988816010BD05483A2100F0FB
:1009700059F8C0460010004000140040001C004020
:100980000A1C000070B5264C2069C00704D110482D
:10099000C168491CC16070BD0D4D2E69A868301A30
:1009A000062806D30020E88028462A304121FFF798
:1009B00078FEAE602068E9883F2905D8E9884A1C9E
:1009C000EA8069182A2288542069C007F2D170BDD4
:1009D000000000207047000083B0B8B5054605A8A8
:1009E0000EC005AB00930D4C802120462A4600F036
:1009F000C3FB01280EDB81B2002209488A4206D0DF
:100A000003695B05FCD4A35C0360521CF6E7016933
:100A1000C905FCD5B8BC01BC03B000476B00002081
:100A2000004400400A46014601A0FFF7D5FFFEE75B
:100A300057726F6E6720706172616D657465727355
:100A40002076616C75653A2066696C652025732097
:100A50006F6E206C696E6520256C750D0A000000B4
:100A600070B500220A4C0B4B8A420ED0855C6C405C
:100A70000725ED43002D06D06608E40700D05E4050
:100A800034466D1CF6E7521CEEE7A0B270BDC046BE
:100A9000FFFF000001A00000A0B00BA901278F807C
:100AA0000B97ED4E3046FFF753FE103602220A92A6
:100AB000EA4B304639469847E94800240460E94843
:100AC000072101600C94E8480B90E84E0BA93046D2
:100AD000FFF72CFF1DA88770447011210170716908
:100AE00039437161E24988477068384370600C94FB
:100AF000E0480B90E04E0BA93046FFF717FF1DA80A
:100B00008770447010250570716939437161D84947
:100B10008847706838437060D84820213A46CF4EE5
:100B2000B0474021D5483A46B0470BA887701B21F3
:100B300001700A994170CE498847D14A906838437C
:100B400090600494E043D06109909061FF2006908A
:100B50000A3011680143762081431160C94C206836
:100B6000C005C00E411CC848FFF7D0FC2168C90071
:100B7000C90E491CFFF7CAFC0646C00A4B280CD315
:100B80004B24E1023046FFF7C1FC0746BF487843DB
:100B90008019A102884200D97F1CFE4A5760106864
:100BA000802101431160FC4E30693169091A6429C2
:100BB000FBD300F063FA002801D1F8487062F84ACC
:100BC000F8481060F84B184608380124E10301602A
:100BD0005C6018680A990843186018682043186018
:100BE00009981060069802300BA9069088800B9532
:100BF000EE4F3846FFF7ACFDBD671DA8001D019004
:100C00000BA8001D03901DA8001D0590A0070A90C9
:100C1000089470693169081A082800D29BE030698D
:100C200070611DA90698888008271D97DF4E304601
:100C3000FFF78EFDB767642000F080FAF767142095
:100C400000F07CFA20021DA9888007971D97304686
:100C5000FFF77EFD3146002426468D67082E11D011
:100C60006427384600F06AFAD048C567384600F075
:100C700065FACE49761C08680007304600D5204644
:100C80000446EAE7C44E3078E2B2002A0DD071780B
:100C9000511A4B424B41184224D17470089830705D
:100CA0003169C4A0FFF798FE1CE000281AD07778BD
:100CB000002030803169CAA03A46FFF78DFE3079B6
:100CC0003169002F10D00028089C41D0326A8A1A5E
:100CD000B38C9A423FD3F38C9A4200D8ACE0F161D6
:100CE000347137E0307931690028089C33D0F269DB
:100CF000891AF28C91422ED9032800D303200026B2
:100D0000A5490E711DAC0799A180BB492180A07136
:100D100004210598FFF7A4FE60806421B748FFF71F
:100D2000C0FC3446B5488019082C07D01DA90A5DBF
:100D3000B34900F00DFA8619641CF3E700214170F5
:100D40000A210170AD48FFF747FE934E089C02E070
:100D50003471F16131623069B169884215D030690E
:100D60008C4A9168A1439160B061B0683169081AFA
:100D7000062807D3F08841280FD39068204390605D
:100D8000F08802E0906820439060854985480860BB
:100D900085484460099808603BE7F788002F08D031
:100DA00031462A310BA83A46FFF762FC794A04988B
:100DB000F080906820439060002FE6D00BA8007868
:100DC0007A280ED80BA806228EA1FFF775FC002802
:100DD00000D1DAE00BA80A228CA1FFF76DFC0028F5
:100DE00026D0052F05D83169A0483A46FFF7F4FD13
:100DF000B8E00BA88388BB4205D931699A483A46C6
:100E0000FFF7EAFDACE00BA84488191F0398FFF731
:100E100027FE844216D10BA80189C288002A089CAB
:100E200016D01BA8418002808A4238D97FA092E068
:100E30009048FFF7D1FDA8E7401C3071C0B20228EE
:100E400088D95BE7316974A0FFF7C6FD089C87E08D
:100E500000291DD07E487EE00010004815070000E4
:100E600004140048001800403200BF120010004077
:100E7000D907000001002F00001400401030004886
:100E8000044400400CF00140006CDC0200A8FDFFAF
:100E90000BA8822101810A22C28040481B90029245
:100EA00007911BAE04213046FFF7DAFDB080A003A6
:100EB0000499062922D01BAA525C3D4B0A9C646807
:100EC000240703D55C1C002B2346F7D10A9C23681A
:100ED000E06022615F4A13435F4A13402360344B52
:100EE0001A460A9B5B68DB0702D1531C002AF7D124
:100EF000002A089C2ED0491C001DDAE700F0BEF83D
:100F000000280799029A2AD02348808C904226D143
:100F10002148C08C884222D11DAC2181E2800A2662
:100F2000A6804F48208006210198FFF799FD608038
:100F300064214C48FFF7B5FB0024274649480019B7
:100F40000A2F19D01DA9CA5D2D4900F001F9041915
:100F50007F1CF3E7414810490969FFF73DFD0E4E3C
:100F60003F2F02D80BA80021C15531690BAB404877
:100F70003A46FFF731FD08E7002141700670394815
:100F8000FFF72AFD044E089CFFE63B48FFF724FDCF
:100F9000FEE7C04604440040000000200A00820032
:100FA0000034004051E5CC1A0830004000200048D1
:100FB0000000FCFF5425643A4B65792025642070BD
:100FC0007265737365642C2077616974696E67203C
:100FD00072656C656173652E2E2E0D0A000000008F
:100FE0005425643A4B65792025642072656C6561EF
:100FF0007365640D0A000000AEAE000054010020CD
:10100000D21B00007265626F6F7400006275696CBC
:101010006420696E666F00005425643A6372632031
:101020006D69736D617463680D0A00005425643A3C
:10103000436C6170506172616D204572726F723ADB
:10104000204D494E203E204D41580D0A0000000021
:101050000A1B00000101EBADFFFFEBADD51A00004C
:101060005A5A0000F0000020F01A00004E1B000049
:101070002C1B00006C1B0000C01A0000FEB50120F4
:1010800080030021062905D0027801AB5A54491C7F
:10109000001DF7E701AD04212846FFF7E1FC0446F7
:1010A000AD8885420ED101AE32880C4F3969738804
:1010B00019A0FFF791FC2437062238463146FFF786
:1010C000D7FA06E00548016905A02A462346FFF73E
:1010D00083FC291B48424841FEBDC0460000002059
:1010E0005425643A435243206D69736D617463689B
:1010F0002120454550524F4D3D3078253038582CF1
:101100002043616C63756C617465643D3078253093
:1011100038580D0A000000005425643A5265616495
:10112000204D494E3A203078253034582C204D41FE
:10113000583A203078253034580D0A0003490A689F
:101140000B689B1A8342FBD37047C046EC0000201B
:101150000FB410B504A9074B02AA039800F004F9D4
:10116000044602A9002000F0A6FC204610BC08BCE2
:1011700004B01847B71A00007CB51D4616460C008F
:1011800001D0611E00E0002101910090054B6A46EC
:101190002946304600F0E8F8002C02D0009A0021E1
:1011A00011707CBDA11A00002021020C01D0102179
:1011B0001046020A01D010460839020901D0104633
:1011C000091F820801D01046891E420801D0881EDE
:1011D0007047081A704702E008C8121F08C1002AA9
:1011E000FAD170477047002001E001C1121F002AA8
:1011F000FBD17047F0B51FB486B00998089A030D6B
:101200000021024314D05148514A18185043051484
:101210001198012810981AD0281A401C00264D4F0A
:101220004D49009601910490002812DA444211E0E1
:101230001198012449A3012801D11098C1430698AF
:10124000119A84600360C26041600BB0F0BD4042FF
:10125000E4E70446210500203F4A001C5141039168
:10126000029012E0E00707D032463B460199009811
:10127000FFF720F80191009032463B461046194690
:10128000FFF718F806460F466410002CEAD10498C0
:10129000039B0028029A0999089806DAFFF70AF8D2
:1012A000019B009AFFF706F805E0FFF76BF8019B3A
:1012B000009AFFF767F804460E460022284BFFF716
:1012C000F9F803D80020C043014607E00022254B6F
:1012D00020463146FEF73CFFFFF7CCF8102409E02A
:1012E000002C0ADB0A220023FEF702FF079B3032A4
:1012F0001A55641E02460A43F2D11122641C079B50
:10130000121B1C19119B012B03D0012308430ED182
:101310000AE0084304D0112010900020119077E7D4
:101320001098151A6D1E0BE01098824202DD002302
:101330006D1C03E0824201DA00236D1E002BEED00B
:10134000069811998260C16030C07EE701FCFFFF02
:10135000104D0000000014400000F03F300000007D
:101360000000F0430000E03FFFB597B006460025BF
:1013700018E2252877D100242746FD49049400E08F
:101380000443761C32780120203A90400842F7D17D
:1013900030782A280ED002223078014630390929C7
:1013A00016D804990A235943303940181443761C3F
:1013B0000490F1E7189802C804911890002904DA03
:1013C0000120400304434842049002200443761C59
:1013D00030782E2814D1042004437078761C2A28F3
:1013E00009D11898761C80C8189009E00A214F434B
:1013F000303FC719761C3078014630390929F5D9B4
:1014000030786C2810D006DC4C281AD068280ED012
:101410006A2817D104E0742813D07A2812D110E07A
:101420000120400504430CE00121090501E00321EE
:1014300009050C437178814203D10120000524186D
:10144000761C761C3078119066280BD013DC582857
:101450007DD009DC00287BD04528F6D04628F4D082
:1014600047281AD1A5E118E0632835D0642870D048
:10147000652812D19DE170286CD008DC6728F1D076
:1014800069287BD06E280DD06F2806D1BAE073286A
:101490002ED0752871D0782859D01A9A199990476A
:1014A0006D1C7EE16002400F022809D003280DD098
:1014B0000428189801680DD00D60001D189070E187
:1014C0001898EA1701680D604A60F6E718980168F5
:1014D0000D80F2E70D70F0E718986A4601781172F6
:1014E000001D18900020507202A80090012005E015
:1014F000189802C8189000200091C04361070DD5CC
:10150000002101E00199491C0191B94212DA81429E
:10151000F8DB009A515C0029F4D10BE0002101E0D6
:101520000199491C01918142FADB019A0099895C79
:101530000029F5D1019904981A9B471A214638468B
:10154000199A00F097FA0199401945180BE04FE0FD
:101550002CE113E04EE0009800990078491C0091BE
:101560001A9A199990470198401E0190401CF2D197
:10157000214638461A9B199A10E137E00A200021CB
:10158000009001916002410F022907D0189A01CA08
:101590001892C2179446032908D00AE01898C01D73
:1015A000C108C90005C91891944607E000B2C217E6
:1015B0009446042902D140B2C1178C4600226146EC
:1015C000944506DA0A460021404291418C462D217D
:1015D00002E0210504D52B216A461173012103E0A5
:1015E000E10701D02021F7E7029155E00A200AE047
:1015F000102008E0102000900021042004430191F5
:10160000082703E008200021019100906002410FAB
:10161000022907D0189A01CA189200229446032979
:1016200008D008E01898C01DC108C90005C9189164
:10163000944603E080B2042900D1C0B20021029197
:10164000210729D51199702906D0009A1021019BF4
:101650004A401A4305D00EE040216A461173012129
:1016600008E06146014306D030216A4611731199A2
:10167000517302210291009A0821019B4A401A43AA
:101680000AD16146014301D1610705D530216A467F
:10169000117301217F1E02911199582904D035A19F
:1016A0000E910DA90D910DE037A1F9E76146019B5F
:1016B000009AFEF71DFD0E9B8C469B5C0D9A521EF8
:1016C0000D92137061460143F0D10D9805A9081AD7
:1016D00020300190600703D501200004844300E01E
:1016E00001270198874201DD381A00E000200199A6
:1016F00000904118029809180498401A0490E003D9
:1017000006D421461A9B199A049800F0B3F945199A
:10171000002706E003A81A9AC05D199990476D1C2E
:101720007F1C02988742F5DBE0030CD521461A9B0B
:10173000199A049800F09EF9451904E01A9A30208D
:10174000199990476D1C0099481E00900029F5DCFE
:1017500008E00D980D990078491C0D911A9A199975
:1017600090476D1C0199481E01900029F1DC63E14E
:101770000928010030313233343536373839616267
:10178000636465660000000030313233343536372B
:1017900038394142434445460000000000F05AF900
:1017A0004519761C3078002800D0E2E528461BB0A9
:1017B000F0BD600700D406271898C01DC108C900F5
:1017C00048680A680831C30FDB071891190001D077
:1017D0009CA108E0210501D59BA104E0E10701D00F
:1017E0009AA100E09AA1430011985B081091652826
:1017F0000CD006DC452809D046281DD0472841D109
:1018000041E0662818D067283CD13CE00021112F28
:1018100001DB112000E0781C0191009008A911A8BB
:10182000FFF7E8FC139905910021119A15927F1C8E
:1018300012980197009150E00120C0070390012009
:10184000019008A9009711A8FFF7D4FC139A1499E6
:1018500005920022119B009212981593059A01920D
:10186000002901D0104602E0791C40180190381A76
:1018700001D5019804E04042401E0090781C019080
:10188000C01B029043E0012F00DA01270021112F35
:1018900001DD112000E038460191009008A911A84F
:1018A000FFF7A8FC13990591119A0021129815923F
:1018B0000091019721070CD40599B94201DB0199E8
:1018C00000E00191012904DD159A491E515C30297F
:1018D00006D0B84201DA011D05DA0121029115E0B6
:1018E0000199491EEDE7002805DC00994118009197
:1018F0000199091A03E0019A411C914200DD01910E
:101900000099401A401C02900120C0070390200754
:1019100006D402990198814202DB0020C043029064
:1019200000206946C87707AF012103980337C9072C
:10193000884224D0022011902B2012900398002876
:101940000CDA404203902D20129007E00A21039800
:10195000FEF7DCFD30317F1E039039701199481E6F
:1019600011900029F2DC03980028EFD1791E12981B
:1019700008703078202108404530BF1E387006A816
:10198000C01BC01D039010980078002800D00120D3
:10199000019941180298C01709180398091804986A
:1019A000401A401E0490E00306D421461A9B199A5F
:1019B000049800F05FF8451910980078002803D0CB
:1019C0001A9A199990476D1CE00324D521461A9B59
:1019D000199A049800F04EF845191CE00098002868
:1019E00007DB00990598884203DD1598405C19993A
:1019F00001E0199930201A9A904700986D1C401CFC
:101A000000900298401E0290002804D11A9A2E20BD
:101A1000199990476D1C0199481E01900029DDDC41
:101A200005E038781A9A7F1C199990476D1C039924
:101A3000481E03900029F4DC21461A9B199A049849
:101A4000ACE600002D0000002B000000200000008C
:101A500000000000F8B5044600251E46174688041D
:101A600004D405E039462020B0476D1C641EF9D52A
:101A70002846F8BDFFB50446002581B01E46C803C0
:101A800001D5302700E02027880404D505E038463A
:101A90000399B0476D1C641EF9D5284605B0F0BD0A
:101AA0004A68002A06D00A68531C0B601070486808
:101AB000401E486070470A68531C0B6010707047E6
:101AC0000A0A202E2E2E546F205265626F6F742EDC
:101AD0002E2E0A0A005425643A454550524F4D2097
:101AE0007772697465206661696C6564210D0A000E
:101AF0005425643A6C656E677468202564203C2028
:101B000073697A652025640D0A005425643A436C94
:101B10006170506172616D204572726F723A205A25
:101B200065726F2076616C75650D0A005425643A04
:101B3000756E68616E646C6564206D73675B6C655F
:101B40006E203D2025645D3A2025730D0A00542542
:101B5000643A6D7367206C656E202564206973207C
:101B6000746F6F2073686F72740D0A000962756973
:101B70006C642074696D653A20323032352D313213
:101B80002D31312031343A33363A33360A0966770B
:101B90003A20312E302E556E76657273696F6E6500
:101BA00064206469726563746F72790A0968773AB0
:101BB0002053535F4358323530342D50726A312DE3
:101BC0004D61696E2D3235303431302D41315F3009
:101BD0000A002530325820002E2E2F4C6962726187
:101BE000726965732F5054333259303033785F4601
:101BF000574C69622F7372632F505433325930300F
:101C000033785F6E7669632E63002E2E2F4C6962E7
:101C10007261726965732F505433325930303378A2
:101C20005F46574C69622F7372632F505433325999
:101C3000303033785F74696D2E63002E2E2F4C691F
:101C4000627261726965732F505433325930303388
:101C5000785F46574C69622F7372632F505433324A
:101C600059303033785F6770696F2E630000000071
:101C7000801C000000000020B8030000E6110000F6
:04000005000000DD1A
:00000001FF
